{
  "contractName": "ComingBack",
  "abi": [
    {
      "constant": true,
      "inputs": [
        {
          "name": "",
          "type": "address"
        }
      ],
      "name": "LoverMap",
      "outputs": [
        {
          "name": "",
          "type": "uint256"
        }
      ],
      "payable": false,
      "stateMutability": "view",
      "type": "function"
    },
    {
      "constant": true,
      "inputs": [],
      "name": "LookerNum",
      "outputs": [
        {
          "name": "",
          "type": "uint256"
        }
      ],
      "payable": false,
      "stateMutability": "view",
      "type": "function"
    },
    {
      "constant": true,
      "inputs": [
        {
          "name": "",
          "type": "uint256"
        }
      ],
      "name": "isOk",
      "outputs": [
        {
          "name": "",
          "type": "bool"
        }
      ],
      "payable": false,
      "stateMutability": "view",
      "type": "function"
    },
    {
      "constant": true,
      "inputs": [
        {
          "name": "",
          "type": "uint256"
        }
      ],
      "name": "LookerMap",
      "outputs": [
        {
          "name": "addr",
          "type": "address"
        },
        {
          "name": "connection",
          "type": "string"
        },
        {
          "components": [
            {
              "name": "name",
              "type": "string"
            },
            {
              "name": "img",
              "type": "string"
            },
            {
              "name": "info",
              "type": "string"
            }
          ],
          "name": "miss",
          "type": "tuple"
        },
        {
          "name": "bonus",
          "type": "uint256"
        },
        {
          "name": "receivedMoney",
          "type": "uint256"
        },
        {
          "components": [
            {
              "name": "isFind",
              "type": "bool"
            },
            {
              "name": "addr",
              "type": "address"
            }
          ],
          "name": "finder",
          "type": "tuple"
        },
        {
          "name": "GooderNum",
          "type": "uint256"
        }
      ],
      "payable": false,
      "stateMutability": "view",
      "type": "function"
    },
    {
      "inputs": [],
      "payable": false,
      "stateMutability": "nonpayable",
      "type": "constructor"
    },
    {
      "constant": false,
      "inputs": [
        {
          "name": "lookAddr",
          "type": "address"
        },
        {
          "name": "conn",
          "type": "string"
        },
        {
          "name": "missname",
          "type": "string"
        },
        {
          "name": "img",
          "type": "string"
        },
        {
          "name": "info",
          "type": "string"
        }
      ],
      "name": "createLooker",
      "outputs": [],
      "payable": true,
      "stateMutability": "payable",
      "type": "function"
    },
    {
      "constant": false,
      "inputs": [
        {
          "name": "goodAddr",
          "type": "address"
        },
        {
          "name": "lookerId",
          "type": "uint256"
        }
      ],
      "name": "donation",
      "outputs": [
        {
          "name": "",
          "type": "uint256"
        }
      ],
      "payable": true,
      "stateMutability": "payable",
      "type": "function"
    },
    {
      "constant": false,
      "inputs": [
        {
          "name": "lookerId",
          "type": "uint256"
        },
        {
          "name": "missname",
          "type": "string"
        }
      ],
      "name": "checkMissingInfo",
      "outputs": [
        {
          "name": "",
          "type": "bool"
        }
      ],
      "payable": false,
      "stateMutability": "nonpayable",
      "type": "function"
    },
    {
      "constant": false,
      "inputs": [
        {
          "name": "lookerId",
          "type": "uint256"
        },
        {
          "name": "ischeck",
          "type": "uint256"
        }
      ],
      "name": "Transfer2Finder",
      "outputs": [
        {
          "name": "",
          "type": "bool"
        }
      ],
      "payable": false,
      "stateMutability": "nonpayable",
      "type": "function"
    },
    {
      "constant": true,
      "inputs": [
        {
          "name": "_id",
          "type": "uint256"
        }
      ],
      "name": "LookerInfoQuery",
      "outputs": [
        {
          "name": "",
          "type": "address"
        },
        {
          "name": "",
          "type": "string"
        },
        {
          "name": "",
          "type": "string"
        },
        {
          "name": "",
          "type": "string"
        },
        {
          "name": "",
          "type": "string"
        },
        {
          "name": "",
          "type": "uint256"
        }
      ],
      "payable": false,
      "stateMutability": "view",
      "type": "function"
    },
    {
      "constant": true,
      "inputs": [
        {
          "name": "lookerId",
          "type": "uint256"
        }
      ],
      "name": "getTotalAccount",
      "outputs": [
        {
          "name": "",
          "type": "uint256"
        }
      ],
      "payable": false,
      "stateMutability": "view",
      "type": "function"
    },
    {
      "constant": true,
      "inputs": [],
      "name": "getBankBalance",
      "outputs": [
        {
          "name": "",
          "type": "uint256"
        }
      ],
      "payable": false,
      "stateMutability": "view",
      "type": "function"
    },
    {
      "constant": true,
      "inputs": [
        {
          "name": "_id",
          "type": "uint256"
        }
      ],
      "name": "isFindCheck",
      "outputs": [
        {
          "name": "",
          "type": "bool"
        }
      ],
      "payable": false,
      "stateMutability": "view",
      "type": "function"
    }
  ],
  "bytecode": "0x6080604052600080553480156200001557600080fd5b506200011c73eee4c5b22cceecd9f21af150516bbc9229194fc56040805190810160405280600981526020017f31323334353637383900000000000000000000000000000000000000000000008152506040805190810160405280600481526020017f4c656e61000000000000000000000000000000000000000000000000000000008152506040805190810160405280600f81526020017f696d616765732f6c656e612e6a706700000000000000000000000000000000008152506040805190810160405280602081526020017fe5a5b3efbc8c3230e5b281efbc8ce8baabe9ab9831e7b1b33635e5b7a6e58fb38152506200032e640100000000026401000000009004565b6200022273eee4c5b22cceecd9f21af150516bbc9229194fc56040805190810160405280600981526020017f31323334353637383900000000000000000000000000000000000000000000008152506040805190810160405280600381526020017f43617400000000000000000000000000000000000000000000000000000000008152506040805190810160405280600e81526020017f696d616765732f6361742e6a70670000000000000000000000000000000000008152506040805190810160405280600481526020017f33e5b281000000000000000000000000000000000000000000000000000000008152506200032e640100000000026401000000009004565b6200032873eee4c5b22cceecd9f21af150516bbc9229194fc56040805190810160405280600981526020017f31323334353637383900000000000000000000000000000000000000000000008152506040805190810160405280600681526020017f6c616f72656e00000000000000000000000000000000000000000000000000008152506040805190810160405280601181526020017f696d616765732f6c616f72656e2e6a70670000000000000000000000000000008152506040805190810160405280602081526020017fe794b7efbc8c3735e5b281efbc8ce8baabe9ab9831e7b1b33730e5b7a6e58fb38152506200032e640100000000026401000000009004565b620006ec565b60006200033a620005e9565b620003446200060b565b60003410151515620003be576040517f08c379a00000000000000000000000000000000000000000000000000000000081526004018080602001828103825260078152602001807f626f6e75733c300000000000000000000000000000000000000000000000000081525060200191505060405180910390fd5b3492506060604051908101604052808781526020018681526020018581525091506040805190810160405280600015158152602001600073ffffffffffffffffffffffffffffffffffffffff16815250905060e0604051908101604052808973ffffffffffffffffffffffffffffffffffffffff1681526020018881526020018381526020018481526020016000815260200182815260200160008152506001600080600081548092919060010191905055815260200190815260200160002060008201518160000160006101000a81548173ffffffffffffffffffffffffffffffffffffffff021916908373ffffffffffffffffffffffffffffffffffffffff1602179055506020820151816001019080519060200190620004e39291906200063d565b5060408201518160020160008201518160000190805190602001906200050b9291906200063d565b5060208201518160010190805190602001906200052a9291906200063d565b506040820151816002019080519060200190620005499291906200063d565b505050606082015181600501556080820151816006015560a08201518160070160008201518160000160006101000a81548160ff02191690831515021790555060208201518160000160016101000a81548173ffffffffffffffffffffffffffffffffffffffff021916908373ffffffffffffffffffffffffffffffffffffffff160217905550505060c082015181600801559050505050505050505050565b6060604051908101604052806060815260200160608152602001606081525090565b6040805190810160405280600015158152602001600073ffffffffffffffffffffffffffffffffffffffff1681525090565b828054600181600116156101000203166002900490600052602060002090601f016020900481019282601f106200068057805160ff1916838001178555620006b1565b82800160010185558215620006b1579182015b82811115620006b057825182559160200191906001019062000693565b5b509050620006c09190620006c4565b5090565b620006e991905b80821115620006e5576000816000905550600101620006cb565b5090565b90565b611b4680620006fc6000396000f3006080604052600436106100b9576000357c0100000000000000000000000000000000000000000000000000000000900463ffffffff16806217a9b4146100be5780630b4eb13814610103578063241803d11461015a5780634bdc2f651461019b57806363086611146101c65780637b83b50b1461020b5780638684a5be146102365780638f7ac72f1461028557806394e16e7e146103105780639d157c0814610534578063b7cbb70214610682578063dcf384271461077e575b600080fd5b3480156100ca57600080fd5b506100e9600480360381019080803590602001909291905050506107d2565b604051808215151515815260200191505060405180910390f35b34801561010f57600080fd5b50610144600480360381019080803573ffffffffffffffffffffffffffffffffffffffff169060200190929190505050610802565b6040518082815260200191505060405180910390f35b34801561016657600080fd5b506101856004803603810190808035906020019092919050505061081a565b6040518082815260200191505060405180910390f35b3480156101a757600080fd5b506101b0610845565b6040518082815260200191505060405180910390f35b3480156101d257600080fd5b506101f16004803603810190808035906020019092919050505061084b565b604051808215151515815260200191505060405180910390f35b34801561021757600080fd5b5061022061086b565b6040518082815260200191505060405180910390f35b34801561024257600080fd5b5061026b600480360381019080803590602001909291908035906020019092919050505061088a565b604051808215151515815260200191505060405180910390f35b34801561029157600080fd5b506102f660048036038101908080359060200190929190803590602001908201803590602001908080601f0160208091040260200160405190810160405280939291908181526020018383808284378201915050505050509192919290505050610bf1565b604051808215151515815260200191505060405180910390f35b34801561031c57600080fd5b5061033b60048036038101908080359060200190929190505050610eb8565b604051808773ffffffffffffffffffffffffffffffffffffffff1673ffffffffffffffffffffffffffffffffffffffff1681526020018060200180602001806020018060200186815260200185810385528a818151815260200191508051906020019080838360005b838110156103bf5780820151818401526020810190506103a4565b50505050905090810190601f1680156103ec5780820380516001836020036101000a031916815260200191505b50858103845289818151815260200191508051906020019080838360005b8381101561042557808201518184015260208101905061040a565b50505050905090810190601f1680156104525780820380516001836020036101000a031916815260200191505b50858103835288818151815260200191508051906020019080838360005b8381101561048b578082015181840152602081019050610470565b50505050905090810190601f1680156104b85780820380516001836020036101000a031916815260200191505b50858103825287818151815260200191508051906020019080838360005b838110156104f15780820151818401526020810190506104d6565b50505050905090810190601f16801561051e5780820380516001836020036101000a031916815260200191505b509a505050505050505050505060405180910390f35b610680600480360381019080803573ffffffffffffffffffffffffffffffffffffffff169060200190929190803590602001908201803590602001908080601f0160208091040260200160405190810160405280939291908181526020018383808284378201915050505050509192919290803590602001908201803590602001908080601f0160208091040260200160405190810160405280939291908181526020018383808284378201915050505050509192919290803590602001908201803590602001908080601f0160208091040260200160405190810160405280939291908181526020018383808284378201915050505050509192919290803590602001908201803590602001908080601f01602080910402602001604051908101604052809392919081815260200183838082843782019150505050505091929192905050506111e8565b005b34801561068e57600080fd5b506106ad60048036038101908080359060200190929190505050611496565b604051808873ffffffffffffffffffffffffffffffffffffffff1673ffffffffffffffffffffffffffffffffffffffff16815260200180602001878152602001868152602001858152602001848152602001838152602001828103825288818151815260200191508051906020019080838360005b8381101561073d578082015181840152602081019050610722565b50505050905090810190601f16801561076a5780820380516001836020036101000a031916815260200191505b509850505050505050505060405180910390f35b6107bc600480360381019080803573ffffffffffffffffffffffffffffffffffffffff169060200190929190803590602001909291905050506117fc565b6040518082815260200191505060405180910390f35b60006001600083815260200190815260200160002060070160000160009054906101000a900460ff169050919050565b60036020528060005260406000206000915090505481565b6000806001600084815260200190815260200160002090508060050154816006015401915050919050565b60005481565b60026020528060005260406000206000915054906101000a900460ff1681565b60003073ffffffffffffffffffffffffffffffffffffffff1631905090565b6000806001600085815260200190815260200160002090508060000160009054906101000a900473ffffffffffffffffffffffffffffffffffffffff1673ffffffffffffffffffffffffffffffffffffffff163373ffffffffffffffffffffffffffffffffffffffff16141515610969576040517f08c379a000000000000000000000000000000000000000000000000000000000815260040180806020018281038252600d8152602001807f6e6f74206c6f6f6b65722049440000000000000000000000000000000000000081525060200191505060405180910390fd5b600115158160070160000160009054906101000a900460ff1615151415156109f9576040517f08c379a000000000000000000000000000000000000000000000000000000000815260040180806020018281038252600f8152602001807f4e6f206f6e6520697320666f756e64000000000000000000000000000000000081525060200191505060405180910390fd5b600015156002600086815260200190815260200160002060009054906101000a900460ff161515141515610a95576040517f08c379a00000000000000000000000000000000000000000000000000000000081526004018080602001828103825260118152602001807f20497320666f756e6420616c726561647900000000000000000000000000000081525060200191505060405180910390fd5b6001831415610bc5578060070160000160019054906101000a900473ffffffffffffffffffffffffffffffffffffffff1673ffffffffffffffffffffffffffffffffffffffff166108fc610ae88661081a565b9081150290604051600060405180830381858888f19350505050158015610b13573d6000803e3d6000fd5b5060016002600086815260200190815260200160002060006101000a81548160ff021916908315150217905550610b498461081a565b600360008360070160000160019054906101000a900473ffffffffffffffffffffffffffffffffffffffff1673ffffffffffffffffffffffffffffffffffffffff1673ffffffffffffffffffffffffffffffffffffffff1681526020019081526020016000206000828254019250508190555060019150610bea565b60008160070160000160006101000a81548160ff021916908315150217905550600091505b5092915050565b6000806000806001600087815260200190815260200160002092508260020191508260000160009054906101000a900473ffffffffffffffffffffffffffffffffffffffff1673ffffffffffffffffffffffffffffffffffffffff163373ffffffffffffffffffffffffffffffffffffffff1614151515610cda576040517f08c379a00000000000000000000000000000000000000000000000000000000081526004018080602001828103825260158152602001807f6c6f6f6b65722e616464722069732046696e646572000000000000000000000081525060200191505060405180910390fd5b60001515610ce7876107d2565b1515141515610d5e576040517f08c379a00000000000000000000000000000000000000000000000000000000081526004018080602001828103825260138152602001807f536f6d656f6e6520697320636865636b696e670000000000000000000000000081525060200191505060405180910390fd5b846040518082805190602001908083835b602083101515610d945780518252602082019150602081019050602083039250610d6f565b6001836020036101000a038019825116818451168082178552505050505050905001915050604051809103902060001916826000016040518082805460018160011615610100020316600290048015610e245780601f10610e02576101008083540402835291820191610e24565b820191906000526020600020905b815481529060010190602001808311610e10575b50509150506040518091039020600019161415610eaa5782600701905060018160000160006101000a81548160ff021916908315150217905550338160000160016101000a81548173ffffffffffffffffffffffffffffffffffffffff021916908373ffffffffffffffffffffffffffffffffffffffff16021790555060019350610eaf565b600093505b50505092915050565b600060608060608060006001600088815260200190815260200160002060000160009054906101000a900473ffffffffffffffffffffffffffffffffffffffff1660016000898152602001908152602001600020600101600160008a8152602001908152602001600020600201600001600160008b8152602001908152602001600020600201600101600160008c8152602001908152602001600020600201600201610f638c61081a565b848054600181600116156101000203166002900480601f016020809104026020016040519081016040528092919081815260200182805460018160011615610100020316600290048015610ff85780601f10610fcd57610100808354040283529160200191610ff8565b820191906000526020600020905b815481529060010190602001808311610fdb57829003601f168201915b50505050509450838054600181600116156101000203166002900480601f0160208091040260200160405190810160405280929190818152602001828054600181600116156101000203166002900480156110945780601f1061106957610100808354040283529160200191611094565b820191906000526020600020905b81548152906001019060200180831161107757829003601f168201915b50505050509350828054600181600116156101000203166002900480601f0160208091040260200160405190810160405280929190818152602001828054600181600116156101000203166002900480156111305780601f1061110557610100808354040283529160200191611130565b820191906000526020600020905b81548152906001019060200180831161111357829003601f168201915b50505050509250818054600181600116156101000203166002900480601f0160208091040260200160405190810160405280929190818152602001828054600181600116156101000203166002900480156111cc5780601f106111a1576101008083540402835291602001916111cc565b820191906000526020600020905b8154815290600101906020018083116111af57829003601f168201915b5050505050915095509550955095509550955091939550919395565b60006111f2611a21565b6111fa611a43565b60003410151515611273576040517f08c379a00000000000000000000000000000000000000000000000000000000081526004018080602001828103825260078152602001807f626f6e75733c300000000000000000000000000000000000000000000000000081525060200191505060405180910390fd5b3492506060604051908101604052808781526020018681526020018581525091506040805190810160405280600015158152602001600073ffffffffffffffffffffffffffffffffffffffff16815250905060e0604051908101604052808973ffffffffffffffffffffffffffffffffffffffff1681526020018881526020018381526020018481526020016000815260200182815260200160008152506001600080600081548092919060010191905055815260200190815260200160002060008201518160000160006101000a81548173ffffffffffffffffffffffffffffffffffffffff021916908373ffffffffffffffffffffffffffffffffffffffff1602179055506020820151816001019080519060200190611396929190611a75565b5060408201518160020160008201518160000190805190602001906113bc929190611a75565b5060208201518160010190805190602001906113d9929190611a75565b5060408201518160020190805190602001906113f6929190611a75565b505050606082015181600501556080820151816006015560a08201518160070160008201518160000160006101000a81548160ff02191690831515021790555060208201518160000160016101000a81548173ffffffffffffffffffffffffffffffffffffffff021916908373ffffffffffffffffffffffffffffffffffffffff160217905550505060c082015181600801559050505050505050505050565b60016020528060005260406000206000915090508060000160009054906101000a900473ffffffffffffffffffffffffffffffffffffffff1690806001018054600181600116156101000203166002900480601f0160208091040260200160405190810160405280929190818152602001828054600181600116156101000203166002900480156115685780601f1061153d57610100808354040283529160200191611568565b820191906000526020600020905b81548152906001019060200180831161154b57829003601f168201915b5050505050908060020160606040519081016040529081600082018054600181600116156101000203166002900480601f0160208091040260200160405190810160405280929190818152602001828054600181600116156101000203166002900480156116175780601f106115ec57610100808354040283529160200191611617565b820191906000526020600020905b8154815290600101906020018083116115fa57829003601f168201915b50505050508152602001600182018054600181600116156101000203166002900480601f0160208091040260200160405190810160405280929190818152602001828054600181600116156101000203166002900480156116b95780601f1061168e576101008083540402835291602001916116b9565b820191906000526020600020905b81548152906001019060200180831161169c57829003601f168201915b50505050508152602001600282018054600181600116156101000203166002900480601f01602080910402602001604051908101604052809291908181526020018280546001816001161561010002031660029004801561175b5780601f106117305761010080835404028352916020019161175b565b820191906000526020600020905b81548152906001019060200180831161173e57829003601f168201915b50505050508152505090806005015490806006015490806007016040805190810160405290816000820160009054906101000a900460ff161515151581526020016000820160019054906101000a900473ffffffffffffffffffffffffffffffffffffffff1673ffffffffffffffffffffffffffffffffffffffff1673ffffffffffffffffffffffffffffffffffffffff1681525050908060080154905087565b60008060005483108015611811575060008310155b1515611885576040517f08c379a00000000000000000000000000000000000000000000000000000000081526004018080602001828103825260108152602001807f4e6f2074686973206c6f6f6b657249640000000000000000000000000000000081525060200191505060405180910390fd5b600160008481526020019081526020016000209050600034111515611912576040517f08c379a000000000000000000000000000000000000000000000000000000000815260040180806020018281038252600e8152602001807f6d73672e76616c7565203c3d203000000000000000000000000000000000000081525060200191505060405180910390fd5b34816006016000828254019250508190555034600360008673ffffffffffffffffffffffffffffffffffffffff1673ffffffffffffffffffffffffffffffffffffffff1681526020019081526020016000206000828254019250508190555060408051908101604052808573ffffffffffffffffffffffffffffffffffffffff1681526020013481525081600901600083600801600081548092919060010191905055815260200190815260200160002060008201518160000160006101000a81548173ffffffffffffffffffffffffffffffffffffffff021916908373ffffffffffffffffffffffffffffffffffffffff160217905550602082015181600101559050508291505092915050565b6060604051908101604052806060815260200160608152602001606081525090565b6040805190810160405280600015158152602001600073ffffffffffffffffffffffffffffffffffffffff1681525090565b828054600181600116156101000203166002900490600052602060002090601f016020900481019282601f10611ab657805160ff1916838001178555611ae4565b82800160010185558215611ae4579182015b82811115611ae3578251825591602001919060010190611ac8565b5b509050611af19190611af5565b5090565b611b1791905b80821115611b13576000816000905550600101611afb565b5090565b905600a165627a7a723058204aee6cf4d425140a132a5f90bfaa9f1f6692c6000dc3f99dcf837814dd82c9a90029",
  "source": "pragma solidity ^0.4.24;\n\ncontract ComingBack {\n    //捐款爱心人士\n    struct Goodman{\n        address addr;\n        uint Tomoney;   //捐款数\n    }\n\n    //找到失散者的人\n    struct Finder{\n        bool isFind;    //是否被找到\n        address addr;\n    }\n\n    //失散者\n    struct Missing{\n        string name;   //走失者身份认证\n        string img;\n        string info;   //0或1，0表示男性，1表示女性\n        \n    }\n\n    //寻人者\n    struct Looker{\n        address addr;\n        string connection;\n        Missing miss;   //走失者信息\n        uint bonus;     //寻人者提供的奖励金\n        uint receivedMoney;   //爱心人士捐款总额\n        Finder finder;    //找到走失者的人\n        uint GooderNum;   //捐款次数\n        mapping (uint =>Goodman) GooderMap;   //捐款记录\n    }\n\n    //寻人者的数量及mapping映射\n    uint public LookerNum = 0;\n    mapping (uint=>Looker) public LookerMap;\n    mapping (uint=>bool) public isOk;\n\n    //爱心人士对应的爱心值记录总数\n    mapping (address=>uint) public LoverMap;\n    \n    function ComingBack () public {\n        createLooker(0xeee4C5b22cCEecD9f21aF150516BBC9229194FC5,\"123456789\",'Lena',\"images/lena.jpg\",\"女，20岁，身高1米65左右\");\n        createLooker(0xeee4C5b22cCEecD9f21aF150516BBC9229194FC5,\"123456789\",'Cat',\"images/cat.jpg\",\"3岁\");\n        createLooker(0xeee4C5b22cCEecD9f21aF150516BBC9229194FC5,\"123456789\",'laoren',\"images/laoren.jpg\",\"男，75岁，身高1米70左右\");\n    }\n\n\n    //寻人者公布寻人启事\n    function createLooker(\n        address lookAddr,\n        string conn,\n        string missname,\n        string img,\n        string info\n        ) public payable{\n\n        require(msg.value>=0,\"bonus<0\");\n\n        uint _bonus=msg.value;\n        Missing memory _miss= Missing(missname,img,info);\n        Finder memory _finder=Finder(false,0);\n\n        LookerMap[LookerNum++]=Looker(lookAddr,conn,_miss,_bonus,0,_finder,0);\n    }\n    \n    //爱心人士捐款\n    function donation(address goodAddr,uint lookerId) public  payable returns (uint){\n        require(lookerId < LookerNum && lookerId>=0,\"No this lookerId\");\n        Looker storage _looker=LookerMap[lookerId];\n\n        require(msg.value >0,\"msg.value <= 0\");\n        _looker.receivedMoney+=msg.value;\n        LoverMap[goodAddr]+=msg.value;    //爱心人士的爱心值增加\n\n        _looker.GooderMap[_looker.GooderNum++]=Goodman(goodAddr, msg.value);\n        return lookerId;\n    }\n\n\n    //核实走失者信息\n    function checkMissingInfo(\n        uint lookerId,\n        string missname\n        ) public returns (bool){\n        Looker storage _looker=LookerMap[lookerId];\n        Missing storage _miss=_looker.miss;\n        require(msg.sender!=_looker.addr, \"looker.addr is Finder\");\n        require(isFindCheck(lookerId)==false, \"Someone is checking\");\n\n        if (keccak256(_miss.name) == keccak256(missname)){\n            Finder storage _finder=_looker.finder;\n            _finder.isFind=true;\n            _finder.addr=msg.sender;\n\n            return true;\n        }\n        return false;\n    }\n\n    //寻人者确认之后，将对应奖励金发放给finder\n    function Transfer2Finder(uint lookerId,uint ischeck) public returns(bool){\n        Looker storage _looker=LookerMap[lookerId];\n        require(msg.sender==_looker.addr,\"not looker ID\");\n        require(_looker.finder.isFind==true,\"No one is found\");\n        require(isOk[lookerId]==false,\" Is found already\");\n        if(ischeck==1){\n            _looker.finder.addr.transfer(getTotalAccount(lookerId));\n\n             //寻人者爱心值增加与其得到的奖励金一致，金钱名誉双丰收\n            isOk[lookerId]=true;\n            LoverMap[_looker.finder.addr]+=getTotalAccount(lookerId);\n            return true;\n        }\n         _looker.finder.isFind=false;\n        return false;\n    }\n    \n    function LookerInfoQuery (uint _id) public view returns (address,string,string,string,string,uint){\n        return (LookerMap[_id].addr,\n                LookerMap[_id].connection,\n                LookerMap[_id].miss.name,\n                LookerMap[_id].miss.img,\n                LookerMap[_id].miss.info,\n                getTotalAccount(_id));  \n    }\n    //寻人启事对应ID的奖励总额\n    function getTotalAccount(uint lookerId)public view returns (uint){\n        Looker storage _looker = LookerMap[lookerId];\n        return _looker.receivedMoney+_looker.bonus;\n    }\n\n    //合约的balance\n    function getBankBalance() public view returns (uint){\n        return address(this).balance;\n    }\n    function isFindCheck (uint _id) public view returns (bool){\n        return LookerMap[_id].finder.isFind;    \n    }\n\n}\n",
  "sourcePath": "/Users/miss_jian/SmartContractDemo/ComingBack/contracts/ComingBack.sol",
  "compiler": {
    "name": "solc",
    "version": "0.4.24+commit.e67f0147.Emscripten.clang"
  },
  "schemaVersion": "2.0.1",
  "updatedAt": "2018-12-31T08:44:24.064Z"
}